{
  "contractName": "Election",
  "abi": [
    {
      "constant": true,
      "inputs": [],
      "name": "totalVotes",
      "outputs": [
        {
          "name": "",
          "type": "uint256"
        }
      ],
      "payable": false,
      "stateMutability": "view",
      "type": "function",
      "signature": "0x0d15fd77"
    },
    {
      "constant": true,
      "inputs": [
        {
          "name": "",
          "type": "uint256"
        }
      ],
      "name": "candidates",
      "outputs": [
        {
          "name": "id",
          "type": "uint256"
        },
        {
          "name": "name",
          "type": "string"
        },
        {
          "name": "party",
          "type": "string"
        },
        {
          "name": "voteCount",
          "type": "uint256"
        }
      ],
      "payable": false,
      "stateMutability": "view",
      "type": "function",
      "signature": "0x3477ee2e"
    },
    {
      "constant": true,
      "inputs": [],
      "name": "votingEnded",
      "outputs": [
        {
          "name": "",
          "type": "bool"
        }
      ],
      "payable": false,
      "stateMutability": "view",
      "type": "function",
      "signature": "0x9d5a0529"
    },
    {
      "constant": true,
      "inputs": [
        {
          "name": "",
          "type": "address"
        }
      ],
      "name": "voted",
      "outputs": [
        {
          "name": "",
          "type": "bool"
        }
      ],
      "payable": false,
      "stateMutability": "view",
      "type": "function",
      "signature": "0xaec2ccae"
    },
    {
      "constant": true,
      "inputs": [
        {
          "name": "",
          "type": "uint256"
        }
      ],
      "name": "voters",
      "outputs": [
        {
          "name": "id",
          "type": "uint256"
        },
        {
          "name": "fullname",
          "type": "bytes32"
        },
        {
          "name": "nin",
          "type": "bytes32"
        },
        {
          "name": "addr",
          "type": "bytes32"
        },
        {
          "name": "phoneno",
          "type": "bytes32"
        },
        {
          "name": "candidateIDVote",
          "type": "uint256"
        },
        {
          "name": "hasVoted",
          "type": "bool"
        }
      ],
      "payable": false,
      "stateMutability": "view",
      "type": "function",
      "signature": "0xda58c7d9"
    },
    {
      "constant": true,
      "inputs": [],
      "name": "ballotCreator",
      "outputs": [
        {
          "name": "",
          "type": "address"
        }
      ],
      "payable": false,
      "stateMutability": "view",
      "type": "function",
      "signature": "0xde258fc7"
    },
    {
      "inputs": [],
      "payable": false,
      "stateMutability": "nonpayable",
      "type": "constructor",
      "signature": "constructor"
    },
    {
      "anonymous": false,
      "inputs": [
        {
          "indexed": false,
          "name": "nin",
          "type": "bytes32"
        }
      ],
      "name": "AddedVoters",
      "type": "event",
      "signature": "0x9fafa101de9f6f5dedfafb760acee92bb45306fe9b1ebe2369c0723637a102ef"
    },
    {
      "anonymous": false,
      "inputs": [
        {
          "indexed": true,
          "name": "_candidateId",
          "type": "uint256"
        }
      ],
      "name": "votedEvent",
      "type": "event",
      "signature": "0xfff3c900d938d21d0990d786e819f29b8d05c1ef587b462b939609625b684b16"
    },
    {
      "constant": false,
      "inputs": [
        {
          "name": "fullname",
          "type": "bytes32"
        },
        {
          "name": "phoneno",
          "type": "bytes32"
        },
        {
          "name": "nin",
          "type": "bytes32"
        },
        {
          "name": "addr",
          "type": "bytes32"
        }
      ],
      "name": "addVoter",
      "outputs": [],
      "payable": false,
      "stateMutability": "nonpayable",
      "type": "function",
      "signature": "0x23b635ae"
    },
    {
      "constant": false,
      "inputs": [
        {
          "name": "_candidateId",
          "type": "uint256"
        }
      ],
      "name": "vote",
      "outputs": [],
      "payable": false,
      "stateMutability": "nonpayable",
      "type": "function",
      "signature": "0x0121b93f"
    },
    {
      "constant": false,
      "inputs": [],
      "name": "endVoting",
      "outputs": [
        {
          "name": "",
          "type": "bool"
        }
      ],
      "payable": false,
      "stateMutability": "nonpayable",
      "type": "function",
      "signature": "0xc3403ddf"
    },
    {
      "constant": true,
      "inputs": [
        {
          "name": "_candidateId",
          "type": "uint256"
        }
      ],
      "name": "totalVotesFor",
      "outputs": [
        {
          "name": "",
          "type": "uint256"
        }
      ],
      "payable": false,
      "stateMutability": "view",
      "type": "function",
      "signature": "0xa805f1ca"
    },
    {
      "constant": true,
      "inputs": [],
      "name": "getNumOfCandidates",
      "outputs": [
        {
          "name": "",
          "type": "uint256"
        }
      ],
      "payable": false,
      "stateMutability": "view",
      "type": "function",
      "signature": "0xe8685ba1"
    },
    {
      "constant": true,
      "inputs": [
        {
          "name": "_candidateId",
          "type": "uint256"
        }
      ],
      "name": "validCandidate",
      "outputs": [
        {
          "name": "",
          "type": "bool"
        }
      ],
      "payable": false,
      "stateMutability": "view",
      "type": "function",
      "signature": "0x21b4bdde"
    },
    {
      "constant": true,
      "inputs": [],
      "name": "getAccount",
      "outputs": [
        {
          "name": "",
          "type": "address"
        }
      ],
      "payable": false,
      "stateMutability": "view",
      "type": "function",
      "signature": "0xdb613e81"
    },
    {
      "constant": true,
      "inputs": [
        {
          "name": "oldnin",
          "type": "string"
        },
        {
          "name": "newnin",
          "type": "string"
        }
      ],
      "name": "compare",
      "outputs": [
        {
          "name": "",
          "type": "bool"
        }
      ],
      "payable": false,
      "stateMutability": "pure",
      "type": "function",
      "signature": "0x3a96fdd7"
    }
  ],
  "bytecode": "0x60806040523480156200001157600080fd5b50336000806101000a81548173ffffffffffffffffffffffffffffffffffffffff021916908373ffffffffffffffffffffffffffffffffffffffff160217905550620000db60016040805190810160405280600f81526020017f4d7568616d6d65642042756861726900000000000000000000000000000000008152506040805190810160405280601581526020017f416c6c2050726f6772657373697665205061727479000000000000000000000081525060006200016a640100000000026401000000009004565b6200016460026040805190810160405280600e81526020017f4174696b752041627562616b61720000000000000000000000000000000000008152506040805190810160405280601881526020017f50656f706c65732044656d6f637261746963205061727479000000000000000081525060006200016a640100000000026401000000009004565b620002c0565b60056000815480929190600101919050555060806040519081016040528060055481526020018481526020018381526020016000815250600160006005548152602001908152602001600020600082015181600001556020820151816001019080519060200190620001de92919062000211565b506040820151816002019080519060200190620001fd92919062000211565b506060820151816003015590505050505050565b828054600181600116156101000203166002900490600052602060002090601f016020900481019282601f106200025457805160ff191683800117855562000285565b8280016001018555821562000285579182015b828111156200028457825182559160200191906001019062000267565b5b50905062000294919062000298565b5090565b620002bd91905b80821115620002b95760008160009055506001016200029f565b5090565b90565b610e1280620002d06000396000f3fe6080604052600436106100d0576000357c0100000000000000000000000000000000000000000000000000000000900463ffffffff1680630121b93f146100d55780630d15fd771461011057806321b4bdde1461013b57806323b635ae1461018e5780633477ee2e146101e75780633a96fdd7146103155780639d5a05291461048c578063a805f1ca146104bb578063aec2ccae1461050a578063c3403ddf14610573578063da58c7d9146105a2578063db613e811461061f578063de258fc714610676578063e8685ba1146106cd575b600080fd5b3480156100e157600080fd5b5061010e600480360360208110156100f857600080fd5b81019080803590602001909291905050506106f8565b005b34801561011c57600080fd5b50610125610895565b6040518082815260200191505060405180910390f35b34801561014757600080fd5b506101746004803603602081101561015e57600080fd5b810190808035906020019092919050505061089b565b604051808215151515815260200191505060405180910390f35b34801561019a57600080fd5b506101e5600480360360808110156101b157600080fd5b81019080803590602001909291908035906020019092919080359060200190929190803590602001909291905050506108ed565b005b3480156101f357600080fd5b506102206004803603602081101561020a57600080fd5b81019080803590602001909291905050506109ea565b604051808581526020018060200180602001848152602001838103835286818151815260200191508051906020019080838360005b83811015610270578082015181840152602081019050610255565b50505050905090810190601f16801561029d5780820380516001836020036101000a031916815260200191505b50838103825285818151815260200191508051906020019080838360005b838110156102d65780820151818401526020810190506102bb565b50505050905090810190601f1680156103035780820380516001836020036101000a031916815260200191505b50965050505050505060405180910390f35b34801561032157600080fd5b506104726004803603604081101561033857600080fd5b810190808035906020019064010000000081111561035557600080fd5b82018360208201111561036757600080fd5b8035906020019184600183028401116401000000008311171561038957600080fd5b91908080601f016020809104026020016040519081016040528093929190818152602001838380828437600081840152601f19601f820116905080830192505050505050509192919290803590602001906401000000008111156103ec57600080fd5b8201836020820111156103fe57600080fd5b8035906020019184600183028401116401000000008311171561042057600080fd5b91908080601f016020809104026020016040519081016040528093929190818152602001838380828437600081840152601f19601f820116905080830192505050505050509192919290505050610b4a565b604051808215151515815260200191505060405180910390f35b34801561049857600080fd5b506104a1610c3d565b604051808215151515815260200191505060405180910390f35b3480156104c757600080fd5b506104f4600480360360208110156104de57600080fd5b8101908080359060200190929190505050610c50565b6040518082815260200191505060405180910390f35b34801561051657600080fd5b506105596004803603602081101561052d57600080fd5b81019080803573ffffffffffffffffffffffffffffffffffffffff169060200190929190505050610c9f565b604051808215151515815260200191505060405180910390f35b34801561057f57600080fd5b50610588610cbf565b604051808215151515815260200191505060405180910390f35b3480156105ae57600080fd5b506105db600480360360208110156105c557600080fd5b8101908080359060200190929190505050610d3e565b604051808881526020018781526020018681526020018581526020018481526020018381526020018215151515815260200197505050505050505060405180910390f35b34801561062b57600080fd5b50610634610d8d565b604051808273ffffffffffffffffffffffffffffffffffffffff1673ffffffffffffffffffffffffffffffffffffffff16815260200191505060405180910390f35b34801561068257600080fd5b5061068b610db7565b604051808273ffffffffffffffffffffffffffffffffffffffff1673ffffffffffffffffffffffffffffffffffffffff16815260200191505060405180910390f35b3480156106d957600080fd5b506106e2610ddc565b6040518082815260200191505060405180910390f35b600360003373ffffffffffffffffffffffffffffffffffffffff1673ffffffffffffffffffffffffffffffffffffffff16815260200190815260200160002060009054906101000a900460ff1615151561075157600080fd5b600060149054906101000a900460ff1615151561076d57600080fd5b6107768161089b565b151561078157600080fd5b60008111801561079357506005548111155b151561079e57600080fd5b6000196004541015156107b057600080fd5b60001960016000838152602001908152602001600020600301541015156107d657600080fd5b6001600360003373ffffffffffffffffffffffffffffffffffffffff1673ffffffffffffffffffffffffffffffffffffffff16815260200190815260200160002060006101000a81548160ff02191690831515021790555060016000828152602001908152602001600020600301600081548092919060010191905055506001600460008282540192505081905550807ffff3c900d938d21d0990d786e819f29b8d05c1ef587b462b939609625b684b1660405160405180910390a250565b60045481565b600080600090505b6005548110156108e25782600160008581526020019081526020016000206000015414156108d55760019150506108e8565b80806001019150506108a3565b50600090505b919050565b6006600081548092919060010191905055507f9fafa101de9f6f5dedfafb760acee92bb45306fe9b1ebe2369c0723637a102ef826040518082815260200191505060405180910390a160e06040519081016040528060065481526020018581526020018381526020018481526020018281526020016000815260200160001515815250600260006006548152602001908152602001600020600082015181600001556020820151816001015560408201518160020155606082015181600301556080820151816004015560a0820151816005015560c08201518160060160006101000a81548160ff02191690831515021790555090505050505050565b6001602052806000526040600020600091509050806000015490806001018054600181600116156101000203166002900480601f016020809104026020016040519081016040528092919081815260200182805460018160011615610100020316600290048015610a9c5780601f10610a7157610100808354040283529160200191610a9c565b820191906000526020600020905b815481529060010190602001808311610a7f57829003601f168201915b505050505090806002018054600181600116156101000203166002900480601f016020809104026020016040519081016040528092919081815260200182805460018160011615610100020316600290048015610b3a5780601f10610b0f57610100808354040283529160200191610b3a565b820191906000526020600020905b815481529060010190602001808311610b1d57829003601f168201915b5050505050908060030154905084565b6000816040516020018082805190602001908083835b602083101515610b855780518252602082019150602081019050602083039250610b60565b6001836020036101000a03801982511681845116808217855250505050505090500191505060405160208183030381529060405280519060200120836040516020018082805190602001908083835b602083101515610bf95780518252602082019150602081019050602083039250610bd4565b6001836020036101000a0380198251168184511680821785525050505050509050019150506040516020818303038152906040528051906020012014905092915050565b600060149054906101000a900460ff1681565b6000610c5b8261089b565b1515610c6657600080fd5b600060149054906101000a900460ff161515610c8157600080fd5b60016000838152602001908152602001600020600301549050919050565b60036020528060005260406000206000915054906101000a900460ff1681565b60008060009054906101000a900473ffffffffffffffffffffffffffffffffffffffff1673ffffffffffffffffffffffffffffffffffffffff163373ffffffffffffffffffffffffffffffffffffffff16141515610d1c57600080fd5b6001600060146101000a81548160ff0219169083151502179055506001905090565b60026020528060005260406000206000915090508060000154908060010154908060020154908060030154908060040154908060050154908060060160009054906101000a900460ff16905087565b6000600860009054906101000a900473ffffffffffffffffffffffffffffffffffffffff16905090565b6000809054906101000a900473ffffffffffffffffffffffffffffffffffffffff1681565b600060055490509056fea165627a7a72305820b5a0fc5c8ada7ef7f030ae9d53152137ad20a0f63d2dcf139be32cf81a9a16790029",
  "source": "pragma solidity ^0.5.0;\r\n\r\ncontract Election{\r\n    \r\n    // The address of the account that created this ballot.\r\n     address public ballotCreator;\r\n\r\n    constructor () public { \r\n        ballotCreator = msg.sender;    \r\n        addCandidate(1,\"Muhammed Buhari\",\"All Progressive Party\",0);\r\n        addCandidate(2,\"Atiku Abubakar\",\"Peoples Democratic Party\",0);\r\n       //auctionEnd = now + (durationMins + 1 minutes);\r\n    }\r\n    \r\n    //event AddedVoters(address indexed _sender, uint numVoters,bytes32 fullname,bytes32 nin,bytes32 addr,uint candidateIDVote,bool hasVoted);\r\n    //Candidate[] public candidates;\r\n\r\n    // Is voting finished? The ballot creator determines when to set this flag.\r\n    bool public votingEnded;\r\n\r\n    //event to add voters\r\n    event AddedVoters (bytes32 nin);\r\n    event votedEvent (uint indexed _candidateId);\r\n\r\n    //mapping each candidate to their respective id\r\n    mapping(uint => Candidate) public candidates;\r\n    //mapping each voter to the Voter struct\r\n    mapping(uint => Voter) public voters;\r\n    //mapping that connects a voter to an address\r\n    mapping(address => bool) public voted;\r\n \r\n// The total number of votes cast so far. Revealed before voting has ended.\r\n    uint256 public totalVotes;\r\n\r\n    uint  candidatesCount;\r\n    uint  numVoters;\r\n    bytes32 voterList;\r\n    address account;\r\n    \r\n    \r\n    //uint durationMins= 60;    \r\n \r\n    struct Candidate {\r\n        uint id;\r\n        string name;\r\n        string party;\r\n        uint voteCount;\r\n    }\r\n\r\n    struct Voter{\r\n        uint id;\r\n        bytes32 fullname; // bytes32 type are basically strings\r\n        bytes32 nin;\r\n        bytes32 addr;\r\n        bytes32 phoneno;\r\n        uint candidateIDVote;\r\n        bool hasVoted;    \r\n    }    \r\n\r\n    function addVoter(bytes32 fullname,bytes32 phoneno, bytes32 nin,bytes32 addr) public {//returns(uint) {\r\n        //if(validVoter(nin) == true) {\r\n        numVoters++;\r\n        emit AddedVoters(nin);\r\n        voters[numVoters] = Voter(numVoters,fullname,nin,phoneno, addr,0,false);\r\n    }\r\n\r\n    function addCandidate (uint id, string memory _name, string memory party,uint voteCount) private {\r\n        candidatesCount++;\r\n        candidates[candidatesCount] = Candidate(candidatesCount, _name, party, 0);\r\n    }\r\n\r\n    function vote (uint _candidateId) public {\r\n        //require that they havent voted\r\n        require(!voted[msg.sender]);\r\n        // can only vote during voting period\r\n        require(!votingEnded);\r\n         // candidate must be part of the ballot\r\n        require(validCandidate(_candidateId));\r\n\r\n        require(_candidateId > 0 && _candidateId <= candidatesCount);\r\n\r\n        require(totalVotes < ~uint256(0));\r\n\r\n        require(candidates[_candidateId].voteCount < ~uint256(0));\r\n        voted[msg.sender] = true;\r\n        candidates[_candidateId].voteCount++;\r\n        totalVotes += 1;\r\n\r\n        emit votedEvent(_candidateId);\r\n\r\n    }\r\n    \r\n     function endVoting() public returns (bool) {\r\n         // Only ballot creator can end the vote.\r\n         require(msg.sender == ballotCreator);\r\n        votingEnded = true;\r\n        return true;\r\n    }\r\n\r\n     function totalVotesFor(uint _candidateId) view public returns (uint256) {\r\n        require(validCandidate(_candidateId));\r\n         // Don't reveal votes until voting has ended\r\n         require(votingEnded); \r\n        return candidates[_candidateId].voteCount;\r\n    }\r\n\r\n    \r\n    //  function getCandidates() public view returns(bytes32) {\r\n    //     return candidates;\r\n    // }\r\n\r\n     function getNumOfCandidates() public view returns(uint) {\r\n        return candidatesCount;\r\n    }\r\n\r\n    function validCandidate(uint _candidateId) view public returns (bool) {\r\n        for(uint i = 0; i <candidatesCount; i++) {\r\n            if (candidates[_candidateId].id == _candidateId) {\r\n                return true;\r\n            }\r\n        }\r\n        return false;\r\n    }\r\n\r\n\r\n    function getAccount()public view returns(address){\r\n    return account;}\r\n\r\n\r\n    function compare (string memory oldnin, string memory newnin) public pure returns (bool){\r\n      \r\n       return keccak256(abi.encodePacked(oldnin)) == keccak256(abi.encodePacked(newnin));\r\n   }\r\n}\r\n",
  "sourcePath": "D:/Downloads/NewElectionOut/NewElection/contracts/Election.sol",
  "compiler": {
    "name": "solc",
    "version": "0.5.0+commit.1d4f565a.Emscripten.clang"
  },
  "schemaVersion": "3.0.1",
  "updatedAt": "2019-05-16T09:58:15.941Z",
  "devdoc": {
    "methods": {}
  },
  "userdoc": {
    "methods": {}
  }
}